:02000000622874
:100008007E14803120007F08F100911D5B282400B8
:1000180014192E28941A1C282A30F0007008F900A8
:100028001108F0007008F2002000A001A101552875
:1000380024001108F0007908860087017008810003
:100048000130F0007008F90701302000A0070030E7
:10005800A13D5528141C41282230F0007008FA00F0
:100068001108F0007008F20014080139F000150EAC
:1000780001397004031D38284B28161B5928140809
:100088000139F000150E01397004031D43287A0860
:1000980086008701010891000130F0007008FA0716
:1000A80020009111240015165B28200091112000D2
:1000B800921992117108FF007E1009006328F90156
:1000C800FA012030840000308500123045217E106E
:1000D80020006E287030210099009501113023000E
:1000E8008C001F3021008C0090309E000D309D0048
:1000F8000130F3000030F40019210830F30000301B
:10010800F4003021E830F3000330F4001921DF2037
:1001180074082000B9007308B80002217408803AF6
:10012800F80080307802031D9B2801307302031801
:10013800C6288B281030F80078082000C428203002
:10014800C2283030F8007808A2003130BD2840308D
:10015800F8007808A2004130BD280130B4280D30DD
:1001680021009D008B2820003808F8007808A2009C
:100178003908F8007808A3008B282A35F800780891
:10018800A2008B2820002A08013A03199E28033A66
:100198000319A328013A0319A528073A0319AB281C
:1001A800A43A0319B128043A0319B328093A0319E0
:1001B800B728C1288B2821009D149D18E1281C0808
:1001C8002000B200B3013208F5003308F600210020
:1001D8001B082000B200B3017508B500B40132084D
:1001E8003404B60033083504B7003608F50037087C
:1001F800F6007608F4007508F3000800F501F6012A
:10020800200020082104031914292400941D141E19
:10021800142920002108F6002008F500A001A101FA
:100228007608F4007508F3000800F601F701740871
:100238007702031D212973087602031808000B3082
:10024800F5006230890B2629F50B2629003201308A
:10025800F6070030F73D1B29803024009400263033
:100268009500161473359200FE3093002100911505
:1002780092150B178B17200091119211A001A10163
:0E0288000800640080010131890B4629003412
:020000040001F9
:04000E0084DFFFDFAD
:00000001FF
