:02000000622874
:100008007E14803120007F08F100911D5B282400B8
:1000180014192E28941A1C282A30F0007008F900A8
:100028001108F0007008F2002000A001A101552875
:1000380024001108F0007908860087017008810003
:100048000130F0007008F90701302000A0070030E7
:10005800A13D5528141C41282230F0007008FA00F0
:100068001108F0007008F20014080139F000150EAC
:1000780001397004031D38284B28161B5928140809
:100088000139F000150E01397004031D43287A0860
:1000980086008701010891000130F0007008FA0716
:1000A80020009111240015165B28200091112000D2
:1000B800921992117108FF007E1009006328F90156
:1000C800FA012030840000308500123063217E1050
:1000D80020006E282000BA01BB0170302100990071
:1000E8009501113023008C001F3021008C009030C6
:1000F8009E000D309D000130F3000030F4003721E0
:100108000830F3000030F4004E21E830F3000330EB
:10011800F400372120003A083B04031D9928FD20EC
:1001280074082000BD007308BC003A033B04031D9B
:10013800C928013021009D000130F3000030F4008F
:100148003721FD2074082000BD007308BC000D3065
:1001580021009D000130F3000030F4003721FD201C
:1001680074082000B9007308B8003C08F800780843
:10017800A2003D08F8007808A3003808F8007808BD
:10018800A4003908F8007808A50020217408803AEE
:10019800F80080307802031DD32801307302031859
:1001A800ED288E280130D9280D3021009D0020002F
:1001B800BA01BB018E280130BA000030BB008E287E
:1001C8003C08F8007808A2003D08F8007808A30069
:1001D8008E2820002A08A03A0319D628043A0319C1
:1001E800D8280E3A0319DF28073A0319E4288E287D
:1001F8008E2821009D149D18FF281C082000B2009D
:10020800B3013208F5003308F60021001B0820006E
:10021800B200B3017508B500B40132083404B60061
:1002280033083504B7003608F5003708F6007608B5
:10023800F4007508F3000800F501F6012000200815
:100248002104031932292400941D141E3229200088
:100258002108F6002008F500A001A1017608F400A5
:100268007508F3000800F601F70174087702031D0A
:100278003F2973087602031808000B30F500623036
:10028800890B4429F50B442900320130F607003068
:10029800F73D392980302400940026309500161443
:1002A80073359200FE3093002100911592150B17BB
:1002B8008B17200091119211A001A1010800640080
:0A02C80080010131890B6429003424
:020000040001F9
:04000E0084DFFFDFAD
:00000001FF
