:02000000622874
:100008007E14803120007F08F100911D5B282400B8
:1000180014192E28941A1C282A30F0007008F900A8
:100028001108F0007008F2002000A001A101552875
:1000380024001108F0007908860087017008810003
:100048000130F0007008F90701302000A0070030E7
:10005800A13D5528141C41282230F0007008FA00F0
:100068001108F0007008F20014080139F000150EAC
:1000780001397004031D38284B28161B5928140809
:100088000139F000150E01397004031D43287A0860
:1000980086008701010891000130F0007008FA0716
:1000A80020009111240015165B28200091112000D2
:1000B800921992117108FF007E1009006328F90156
:1000C800FA012030840000308500123021217E1092
:1000D80020006E287030210099009501113023000E
:1000E8008C001F3021008C0090309E000D309D0048
:1000F8000130F3000030F400F5200830F300003040
:10010800F4000C21E830F3000330F400F520BB20A4
:1001180074082000B9007308B800DE207408803A1B
:10012800F80080307802031D9B2801307302031801
:10013800AE288B280130A1280D3021009D008B2886
:1001480020003808F8007808A2003908F800780874
:10015800A3008B2820002A08A03A03199E28043AF5
:100168000319A028093A0319A4288B288B282100F1
:100178009D149D18BD281C082000B200B301320848
:10018800F5003308F60021001B082000B200B30177
:100198007508B500B40132083404B60033083504D4
:1001A800B7003608F5003708F6007608F400750839
:1001B800F3000800F501F6012000200821040319C6
:1001C800F0282400941D141EF02820002108F600B1
:1001D8002008F500A001A1017608F4007508F300D5
:1001E8000800F601F70174087702031DFD2873085B
:1001F8007602031808000B30F5006230890B0229DB
:10020800F50B022900320130F6070030F73DF728D8
:10021800803024009400263095001614733592001F
:10022800FE3093002100911592150B178B172000B3
:1002380091119211A001A10108006400800101310F
:06024800890B222900349D
:020000040001F9
:04000E0084DFFFDFAD
:00000001FF
